S011000044494F5F6F726162792E73726563BB
S11300000C942A000C9434000C9434000C943400A6
S11300100C9434000C9434000C9434000C9434008C
S11300200C9434000C9434000C9434000C9434007C
S11300300C9434000C9434000C9434000C9434006C
S11300400C9434000C9434000C9434000C9434005C
S11300500C94340011241FBECFE5D8E0DEBFCDBF21
S11300600E943C010C949E010C940000683008F03E
S113007078C041113CC0813099F028F08230E9F019
S1130080833041F170C02AB381E090E002C0880F50
S1130090991F6A95E2F7809582238ABB80E00895D0
S11300A027B381E090E002C0880F991F6A95E2F7B8
S11300B08095822387BB80E0089524B381E090E09B
S11300C002C0880F991F6A95E2F78095822384BB4A
S11300D080E0089521B381E090E002C0880F991F69
S11300E06A95E2F78095822381BB80E008954130D0
S11300F0E1F5813091F028F08230D9F0833029F194
S113010036C02AB381E090E002C0880F991F6A9537
S1130110E2F7822B8ABB80E0089527B381E090E068
S113012002C0880F991F6A95E2F7822B87BB80E093
S1130130089524B381E090E002C0880F991F6A9566
S1130140E2F7822B84BB80E0089521B381E090E044
S113015002C0880F991F6A95E2F7822B81BB80E069
S1130160089581E0089581E0089581E0089581E093
S11301700895683008F078C041113CC0813099F08E
S113018028F08230E9F0833041F170C02BB381E074
S113019090E002C0880F991F6A95E2F78095822348
S11301A08BBB80E0089528B381E090E002C0880F03
S11301B0991F6A95E2F78095822388BB80E00895B1
S11301C025B381E090E002C0880F991F6A95E2F799
S11301D08095822385BB80E0089522B381E090E07E
S11301E002C0880F991F6A95E2F78095822382BB2B
S11301F080E008954130E1F5813091F028F08230BB
S1130200D9F0833029F136C02BB381E090E002C0ED
S1130210880F991F6A95E2F7822B8BBB80E00895C3
S113022028B381E090E002C0880F991F6A95E2F735
S1130230822B88BB80E0089525B381E090E002C062
S1130240880F991F6A95E2F7822B85BB80E0089599
S113025022B381E090E002C0880F991F6A95E2F70B
S1130260822B82BB80E0089581E0089581E00895A7
S113027081E0089581E0089540E060E081E00E941B
S1130280360041E060E081E00E94B90041E060E0B6
S113029080E00E94360041E061E080E00E94360088
S11302A041E062E080E00E94360041E060E080E0EE
S11302B00E94B90040E061E080E00E94B90040E0A3
S11302C062E080E00E94B9002FEB87E299E02150C0
S11302D080409040E1F700C0000041E061E080E030
S11302E00E94B90040E060E080E00E94B90040E074
S11302F060E080E00E94B9002FEB87E299E0215092
S113030080409040E1F700C0000041E062E080E0FE
S11303100E94B90040E060E080E00E94B90040E043
S113032060E080E00E94B9002FE78AE196E0215066
S113033080409040E1F700C00000B7CFF894FFCFB1
S9030000FC
