S00B00004B50442E737265633A
S11300000C942A000C943F000C943F000C943F0085
S11300100C943F000C943F000C943F000C943F0060
S11300200C943F000C943F000C943F000C943F0050
S11300300C943F000C943F000C943F000C943F0040
S11300400C943F000C943F000C943F000C943F0030
S11300500C943F0011241FBECFE5D8E0DEBFCDBF16
S113006010E0A0E6B0E0EAEFF7E002C005900D92E0
S1130070A839B107D9F70E941E030C94FB030C9412
S11300800000CF93C82F40E065E080E00E94A50106
S113009040E066E080E00E94A5016C2F81E00E94B0
S11300A0280241E067E080E00E94A5018FE99FE01B
S11300B00197F1F700C0000040E067E080E00E9493
S11300C0A501CF910895CF93C82F41E065E080E06A
S11300D00E94A50140E066E080E00E94A5016C2F2B
S11300E081E00E94280241E067E080E00E94A501CF
S11300F08FE99FE00197F1F700C0000040E067E05E
S113010080E00E94A501CF9108952FEF89EF90E040
S1130110215080409040E1F700C0000088E30E9435
S113012041008CE00E94410081E00E94410008955A
S11301300F931F93CF938C01C0E003C00E94630010
S1130140CF5FF801EC0FF11D80818111F7CFCF91C2
S11301501F910F910895CF92DF92EF92FF920F9328
S11301601F938B019C01672B682B692B49F580E356
S11301700E94630046C0DC01CB01880F991FAA1FAF
S1130180BB1F6C017D01CC0CDD1CEE1CFF1CCC0CD8
S1130190DD1CEE1CFF1CC80ED91EEA1EFB1EC90185
S11301A0B8012AE030E040E050E00E94D9036C0D31
S11301B07D1D8E1D9F1D022F132F242F352F04C04C
S11301C061E070E080E090E0011511052105310542
S11301D091F612C02AE030E040E050E00E94D903DA
S11301E0E22EF32E042F152F80E3860F0E94630066
S11301F06E2D7F2D802F912F613071058105910522
S113020049F71F910F91FF90EF90DF90CF900895E1
S113021081E00E9441000895683008F078C04111DF
S11302203CC0813099F028F08230E9F0833041F10C
S113023070C02AB381E090E002C0880F991F6A95CC
S1130240E2F7809582238ABB80E0089527B381E09A
S113025090E002C0880F991F6A95E2F78095822387
S113026087BB80E0089524B381E090E002C0880F4A
S1130270991F6A95E2F78095822384BB80E00895F4
S113028021B381E090E002C0880F991F6A95E2F7DC
S11302908095822381BB80E008954130E1F581306F
S11302A091F028F08230D9F0833029F136C02AB396
S11302B081E090E002C0880F991F6A95E2F7822BD3
S11302C08ABB80E0089527B381E090E002C0880FE4
S11302D0991F6A95E2F7822B87BB80E0089524B3C7
S11302E081E090E002C0880F991F6A95E2F7822BA3
S11302F084BB80E0089521B381E090E002C0880FC0
S1130300991F6A95E2F7822B81BB80E0089581E012
S1130310089581E0089581E0089581E00895813091
S113032049F028F0823049F0833051F00CC06ABBA8
S113033080E0089567BB80E0089564BB80E0089581
S113034061BB80E0089581E00895683008F078C0CA
S113035041113CC0813099F028F08230E9F08330BB
S113036041F170C02BB381E090E002C0880F991F67
S11303706A95E2F7809582238BBB80E0089528B3C9
S113038081E090E002C0880F991F6A95E2F780959A
S1130390822388BB80E0089525B381E090E002C009
S11303A0880F991F6A95E2F78095822385BB80E0C8
S11303B0089522B381E090E002C0880F991F6A95E6
S11303C0E2F78095822382BB80E008954130E1F515
S11303D0813091F028F08230D9F0833029F136C091
S11303E02BB381E090E002C0880F991F6A95E2F771
S11303F0822B8BBB80E0089528B381E090E002C09B
S1130400880F991F6A95E2F7822B88BB80E00895D4
S113041025B381E090E002C0880F991F6A95E2F746
S1130420822B85BB80E0089522B381E090E002C076
S1130430880F991F6A95E2F7822B82BB80E00895AA
S113044081E0089581E0089581E0089581E00895B0
S1130450813049F028F0823049F0833051F00CC0EB
S11304606BBB80E0089568BB80E0089565BB80E0C5
S1130470089562BB80E0089581E008954115510517
S1130480D1F16830D0F5813091F028F08230D9F084
S1130490833029F134C089B390E002C095958795E3
S11304A06A95E2F78170FA01808380E0089586B34B
S11304B090E002C0959587956A95E2F78170FA01FC
S11304C0808380E0089583B390E002C0959587957A
S11304D06A95E2F78170FA01808380E0089580B321
S11304E090E002C0959587956A95E2F78170FA01CC
S11304F0808380E0089581E0089581E0089581E09B
S11305000895CF92DF92EF92FF920F931F93CF93B0
S1130510DF931F92CDB7DEB700E042C0C02ED12CCE
S1130520F601EC58FF4F40E0608183E00E94A50192
S113053010E02BC0E12EF12CF701E059FF4FAE0182
S11305404F5F5F4F608183E00E943E028981811189
S11305501BC0C701880F991F880F991F805A9F4F8E
S1130560FC01EC0DFD1D10810AC0AE014F5F5F4F11
S1130570F701E059FF4F608183E00E943E029981B8
S1130580992399F3812F10C01F5F143098F2F6015C
S1130590EC58FF4F41E0608183E00E94A5010F5FAA
S11305A0043008F4BBCF8FEF0F90DF91CF911F91F0
S11305B00F91FF90EF90DF90CF9008954B3279F137
S11305C018F44A3291F035C04D3219F04F32B9F077
S11305D030C090E09C01261B3109B901072E000CA4
S11305E0880B990B0E94AB000895869FB0011124DB
S11305F0072E000C880B990B0E94AB00089566230C
S113060049F00E94CD03682F70E080E090E00E94E2
S1130610AB00089588E790E00E949800089570E088
S1130620680F711D072E000C880B990B0E94AB00FC
S113063008958CE790E00E94980008950E94C103F9
S11306406FEF81E00E948F0141E065E080E00E944D
S11306500C0141E066E080E00E940C0141E067E0AB
S113066080E00E940C0141E060E083E00E940C0104
S113067041E061E083E00E940C0141E062E083E03C
S11306800E940C0141E063E083E00E940C0140E021
S113069064E083E00E940C0140E065E083E00E9496
S11306A00C0140E066E083E00E940C0140E067E05A
S11306B083E00E940C016FEF83E00E9428020E94F5
S11306C085002FEF81EE94E0215080409040E1F7C7
S11306D000C0000084E890E00E9498002FEF83EDB2
S11306E090E3215080409040E1F700C000000E9458
S11306F008018FE890E00E9498002FEF83ED90E3CB
S1130700215080409040E1F700C000000E940801A1
S113071010E0E12CF12C0E948102C82FD0EDD80FFB
S1130720DA3038F4111105C00E946300FD2E11E087
S1130730F2CFDA3038F4113029F48C2F0E946300A0
S1130740ED2EE9CFCB3231F0CD3221F0CA3211F0A7
S1130750CF3229F48C2F0E9463000C2FDCCFCD33D1
S113076051F485E990E00E949800402F6E2D8F2D62
S11307700E94DE02D0CFCF3371F60E94080110E050
S1130780CACF80EE8ABB8FEF87BB14BA9FE091BBC0
S11307901ABA17BA14BA81BB0895991B79E004C038
S11307A0991F961708F0961B881F7A95C9F78095AC
S11307B00895A1E21A2EAA1BBB1BFD010DC0AA1F9E
S11307C0BB1FEE1FFF1FA217B307E407F50720F0B6
S11307D0A21BB30BE40BF50B661F771F881F991F31
S11307E01A9469F760957095809590959B01AC017A
S10D07F0BD01CF010895F894FFCF76
S11307FA3738392F3435362A3132332D3F303D2BB1
S113080A040506070001020345727200496E766107
S113081A6C69640043616C63756C61746F72005334
S10B082A74617274003D0000CA
S9030000FC
