:100000000C942A000C943F000C943F000C943F0089
:100010000C943F000C943F000C943F000C943F0064
:100020000C943F000C943F000C943F000C943F0054
:100030000C943F000C943F000C943F000C943F0044
:100040000C943F000C943F000C943F000C943F0034
:100050000C943F0011241FBECFE5D8E0DEBFCDBF1A
:1000600010E0A0E6B0E0EAEDF3E002C005900D92EA
:10007000AA36B107D9F70E9473010C94EB010C94D6
:100080000000683008F078C041113CC0813099F020
:1000900028F08230E9F0833041F170C02AB381E06A
:1000A00090E002C0880F991F6A95E2F7809582233D
:1000B0008ABB80E0089527B381E090E002C0880FFA
:1000C000991F6A95E2F78095822387BB80E00895A7
:1000D00024B381E090E002C0880F991F6A95E2F78F
:1000E0008095822384BB80E0089521B381E090E075
:1000F00002C0880F991F6A95E2F78095822381BB21
:1001000080E008954130E1F5813091F028F08230AF
:10011000D9F0833029F136C02AB381E090E002C0E3
:10012000880F991F6A95E2F7822B8ABB80E00895B9
:1001300027B381E090E002C0880F991F6A95E2F72B
:10014000822B87BB80E0089524B381E090E002C059
:10015000880F991F6A95E2F7822B84BB80E008958F
:1001600021B381E090E002C0880F991F6A95E2F701
:10017000822B81BB80E0089581E0089581E008959D
:1001800081E0089581E00895813049F028F08230BF
:1001900049F0833051F00CC06ABB80E0089567BB22
:1001A00080E0089564BB80E0089561BB80E008951D
:1001B00081E00895683008F078C041113CC081307A
:1001C00099F028F08230E9F0833041F170C02BB310
:1001D00081E090E002C0880F991F6A95E2F7809550
:1001E00082238BBB80E0089528B381E090E002C0B9
:1001F000880F991F6A95E2F78095822388BB80E07B
:10020000089525B381E090E002C0880F991F6A9598
:10021000E2F78095822385BB80E0089522B381E0D8
:1002200090E002C0880F991F6A95E2F780958223BB
:1002300082BB80E008954130E1F5813091F028F0F3
:100240008230D9F0833029F136C02BB381E090E0C1
:1002500002C0880F991F6A95E2F7822B8BBB80E062
:10026000089528B381E090E002C0880F991F6A9535
:10027000E2F7822B88BB80E0089525B381E090E00F
:1002800002C0880F991F6A95E2F7822B85BB80E038
:10029000089522B381E090E002C0880F991F6A950B
:1002A000E2F7822B82BB80E0089581E0089581E02F
:1002B000089581E0089581E00895813049F028F0A3
:1002C000823049F0833051F00CC06BBB80E0089560
:1002D00068BB80E0089565BB80E0089562BB80E064
:1002E000089581E00895B12C01E011E060E071E033
:1002F00081E0C0E09C2F0E94B10160E071E081E0EC
:100300009C2F0E94B601C12CD12C7601C701B601E9
:100310000E94B101C701B6010E94B601D0E01EC023
:100320004D2F6B2D702F812F90E00E94D4014C2F08
:10033000C12CD12C7601C701B6010E94D4012FEB4C
:1003400087E299E0215080409040E1F700C0000032
:10035000CF5F01C0C0E0CA3018F3DF5FDA30D0F3FE
:10036000DDCF872F6FEF0E94C4000895CF93DF93F6
:10037000C82FD92F61110AC041E0692F0E944100A6
:1003800040E06D2F8C2F0E94DA000BC0613049F4E1
:1003900041E0692F0E94410041E06D2F8C2F0E94A7
:1003A000DA00DF91CF910895611109C0E42FF0E0E8
:1003B000E05AFF4F6081872F0E945D0108956130F0
:1003C00049F4E42FF0E0E05AFF4F60816095872FF9
:0A03D0000E945D010895F894FFCF2C
:0A03DA003F065B4F666D7D077F6FE5
:00000001FF
